:020000040800F2
:1000000000000120E5450008350800083708000811
:10001000390800083B0800083D08000800000000FF
:100020000000000000000000000000000142000885
:100030003F08000800000000A14200084108000835
:1000400035460008354600083546000835460008A4
:100050003546000835460008354600083546000894
:100060003546000835460008354600083546000884
:100070003546000835460008354600083546000874
:100080003546000835460008354600083546000864
:100090003546000835460008354600083546000854
:1000A0003546000855080008354600083546000862
:1000B000354600080000000000000000354600083A
:1000C0003546000835460008354600083546000824
:1000D0003546000835460008354600083546000814
:1000E000354600083546000800000000000000000A
:1000F0000000000000000000000000000000000000
:1001000000000000354600080000000035460008E9
:1001100000000000000000003546000835460008D9
:1001200035460008354600083546000835460008C3
:10013000354600080000000000000000000000003C
:100140003546000835460008354600080000000026
:100150003546000835460008354600083546000893
:100160003546000835460008354600080000000006
:100170003546000835460008000000000000000079
:1001800035460008354600083546000800000000E6
:1001900010B5054C237833B9044B13B10448AFF3C1
:1001A00000800123237010BD7800002000000000B3
:1001B000AC4E000808B5034B1BB103490348AFF32D
:1001C000008008BD000000007C000020AC4E00084C
:1001D000034613F8012B002AFBD1181A0138704787
:1001E00001F0FF01102A2BDB10F0070F08D010F8E8
:1001F000013B013A8B422DD010F0070F42B3F6D1EC
:10020000F0B441EA012141EA014122F007047FF004
:1002100000070023F0E80256083C85EA010586EA5B
:10022000010685FA47F5A3FA87F586FA47F6A5FA97
:1002300087F68EB9EED1F0BC01F0FF0102F00702A3
:1002400032B110F8013B013A83EA010313B1F8D14E
:100250000020704701387047002D06BF354603382F
:10026000073815F0010F07D1013015F4807F02BF68
:10027000013015F4C03F0130F0BC0138704700BFB9
:1002800053B94AB9002908BF00281CBF4FF0FF31FD
:100290004FF0FF3000F072B9ADF1080C6DE904CEFB
:1002A00000F006F8DDF804E0DDE9022304B0704751
:1002B0002DE9F047089E04468846002B4BD18A4220
:1002C000154667D9B2FA82F24AB1C2F1200701FAA3
:1002D00002F320FA07F7954047EA030894404FEAF3
:1002E000154E230CB8FBFEF71FFA85FC0EFB178892
:1002F00043EA084307FB0CF1994209D9EB1807F1CF
:10030000FF3080F01B81994240F21881023F2B445C
:100310005B1AA4B2B3FBFEF00EFB103344EA0344B5
:1003200000FB0CFCA44509D92C1900F1FF3380F027
:100330000781A44540F2048102382C4440EA07407A
:10034000A4EB0C0400271EB1D4400023C6E90043EF
:100350003946BDE8F0878B4209D9002E00F0EB80CA
:100360000027C6E9000138463946BDE8F087B3FAF0
:1003700083F7002F47D18B4202D3824200F2FA80EA
:10038000841A61EB030301209846002EE0D0C6E9F1
:100390000048DDE702B9FFDEB2FA82F2002A40F03F
:1003A0008F80491B4FEA154E1FFA85F80127B1FBD4
:1003B000FEFC230C0EFB1C1143EA014308FB0CF16D
:1003C000994207D9EB180CF1FF3002D2994200F2A2
:1003D000CD808446591AA3B2B1FBFEF00EFB101477
:1003E00043EA044408FB00F8A04507D92C1900F1A2
:1003F000FF3302D2A04500F2B6801846A4EB0804F1
:1004000040EA0C409FE7C7F1200CBB4022FA0CFEEB
:100410004EEA030E01FA07F420FA0CF521FA0CF368
:100420004FEA1E482543B3FBF8F92C0C08FB19339F
:100430001FFA8EFA44EA034309FB0AF49C4202FACB
:1004400007F200FA07F10BD91EEB030309F1FF30A5
:1004500080F087809C4240F28480A9F102097344B5
:100460001B1BADB2B3FBF8F008FB103345EA0344A5
:1004700000FB0AFAA24508D91EEB040400F1FF3381
:100480006BD2A24569D90238744440EA0940A0FB06
:100490000289A4EB0A044C45C2464B4654D351D0C2
:1004A000002E69D0B1EB0A0564EB030404FA0CFCDE
:1004B000FD40FC404CEA0505C6E90054002747E72B
:1004C000C2F1200320FA03F7954001FA02F021FA65
:1004D00003F34FEA154E3843010CB3FBFEF71FFA46
:1004E00085F80EFB173341EA034107FB08F38B4203
:1004F00004FA02F407D9691807F1FF3C2FD28B42A6
:100500002DD9023F2944CB1A81B2B3FBFEF00EFB7A
:10051000103341EA034100FB08F38B4207D9691805
:1005200000F1FF3C17D28B4215D902382944C91A71
:1005300040EA07473BE73746304609E70746E7E624
:100540001846FBE64145ABD2B8EB020A69EB0E0256
:1005500001381346A4E76046E9E7184695E7674681
:10056000D1E781467CE702382C4447E7ACF1020C26
:100570002B442FE7384608E73746E9E6704700BFC7
:1005800082B00A4BDA6C42F08002DA64DA6C02F074
:1005900080020092009ADA6C42F00102DA64DB6CAD
:1005A00003F001030193019B02B070470010024069
:1005B0007047000030B5C1B01BE0E3002344990050
:1005C000114A0A44936952681049684604F072F867
:1005D0006846FFF7FDFD4FF47A7382B269460C4816
:1005E00001F0FFFD0134AC42E7D34FF47A7003F021
:1005F0000DFC02F097FD054600220146024803F07B
:100600006DF80024EFE700BF781900202C4F000898
:10061000FC1B002008B5642003F0F8FBFBE708B5DD
:10062000012003F0F3FBFBE710B503F08FFD0A4C4C
:1006300060600A4B186803F0A9F88000A060084BBE
:10064000186803F0A3F88000E060064B186803F018
:100650009DF88000206110BD3C1B00207419002013
:10066000281B0020341B002072B6FEE700B597B0AF
:100670004422002105A804F014F8002300930193FC
:100680000293039304934FF4007001F06FF918BBC9
:10069000012205924FF48033069302230F93032126
:1006A000109111921422129207221392149315930F
:1006B00005A800F015FA88B90F23009303230193CE
:1006C00000230293039304930421684600F044FD41
:1006D00030B917B05DF804FBFFF7C6FFFFF7C4FFA2
:1006E000FFF7C2FF08B50A480A4B03604F23436077
:1006F000002383606422C26003614361836101F06F
:1007000017FB18B9024801F0E3F908BDFFF7ACFF89
:10071000641B00200044014080B5A0B000F01CF92B
:10072000FFF7A4FFFFF72CFF03F0F8FEFFF7DAFF57
:1007300000251E951F951EA803F094FB274B1860FB
:100740001C951D9501211CA803F097FB244B1860F4
:10075000244B1A931B952A4601211AA803F060FB2B
:10076000214B1860214C16AE94E80F0086E80F006C
:100770002946304603F0A6FB1D4B18600FAE04F16E
:1007800010070FCF0FC697E8070086E80700294635
:100790000FA803F005FB174B186008AE04F12C07F7
:1007A0000FCF0FC697E8070086E80700294608A87C
:1007B00003F0F6FA104B186001AE48340FCC0FC6A8
:1007C00094E8070086E80700294601A803F0E8FA44
:1007D0000A4B186003F0DFFAFEE700BFB01B0020F1
:1007E000301B0020B10500082C1B0020C84E00085B
:1007F000381B002074190020281B0020341B002007
:1008000070477047034B0360034B0B6080231360FA
:10081000704700BF9402002094000020034B036047
:10082000034B0B604FF48073136070470007002088
:1008300000030020FEE7FEE7FEE7FEE7FEE7704765
:1008400008B500F099F802F0ADFF012801D003F0DF
:1008500059FD08BD08B5044A136801331360034805
:1008600001F071F908BD00BFB41B0020641B00201B
:1008700000B583B00D4B1A6E42F001021A661A6E73
:1008800002F001020092009A9A6D42F080529A653D
:100890009B6D03F080530193019B00220F216FF0A9
:1008A000010001F0BDF803B05DF804FB0010024048
:1008B00002680E4B9A4200D0704700B583B003F532
:1008C0004C431A6E42F400321A661B6E03F4003376
:1008D0000193019B00220F21192001F0A1F819209A
:1008E00001F0D2F803B05DF804FB00BF0044014002
:1008F000014B00221A607047B41B0020014B18689E
:10090000704700BFB41B0020104B1B780BB90120AF
:10091000704710B504464FF47A70B0FBF3F30C4AFD
:100920001068B0FBF3F001F0BDF868B90F2C01D9E5
:1009300001200AE0002221464FF0FF3001F070F85C
:10094000044B1C60002000E0012010BD00000020CE
:10095000080000200400002010B5032001F04EF82C
:100960000F20FFF7D1FF10B10124204610BD04462F
:10097000FFF77EFFF9E70000034B1B78034A11687D
:100980000B441360704700BF00000020B81B00201C
:10099000014B1868704700BFB81B002030B583B00A
:1009A0000546204B9B6D13F0805F0BD000F0D6FF07
:1009B000B0F5007F17D0802D1FD82DD0702D2DD0F1
:1009C00000211BE0174CA36D43F08053A365A36D7A
:1009D00003F080530193019B00F0C0FFA36D23F04F
:1009E0008053A365E4E7802D03D9A02D03D902210C
:1009F00004E0002102E0012100E003210A4A13681B
:100A000023F007030B431360136803F007038B42C3
:100A100006D0012003B030BD0221EFE70121EDE750
:100A20000020F7E70010024000200240284A9368A7
:100A3000D26802F0030213F00C030AD00C2B06D08C
:100A4000042B1FD0082B20D00020024610E0012AE2
:100A5000F6D11F4A126812F0080F0CD11C4AD2F8C6
:100A60009420C2F303221B4951F8222043B10020F5
:100A70000C2B0DD07047164A1268C2F30312F2E72E
:100A80001046F5E714480022F2E714480022EFE789
:100A90000F4BDB6803F00303022B15D0032B15D09B
:100AA0000B4BD868C0F302100130D968C1F306219E
:100AB00002FB01F2B2FBF0F2D868C0F341600130F2
:100AC0004000B2FBF0F0D5E7034AE9E7034AE7E765
:100AD000001002408C4F00080024F40000127A003D
:100AE000002800F01C83F0B583B00446AF4B9D682E
:100AF00005F00C05DE6806F00306036813F0100F1E
:100B00005BD0E5B10C2D18D0A369002B00F0BC80A0
:100B1000A64A136843F001031360FFF739FF074645
:100B2000A24B1B6813F0020F40F09B80FFF730FFD1
:100B3000C01B0228F4D90323FDE2012EE4D19B4B14
:100B40001B6813F0020F03D0A369002B00F0EA82A8
:100B5000206A964B1B6813F0080F5CD0934B1B6800
:100B600003F0F00398425DD8904B1A6842F00802F7
:100B70001A601A6822F0F002216A0A431A605A6861
:100B800022F47F42E16942EA01225A60002D61D0DD
:100B9000FFF74CFF854B9B68C3F30313844AD35C78
:100BA00003F01F03D840834B1860834B1868FFF78E
:100BB000ABFE0346002840F0BE82236813F0010F0D
:100BC00000F08180082D75D00C2D71D06368B3F5CD
:100BD000803F00F09780B3F5A02F00F09980734B11
:100BE0001A6822F480321A601A6822F480221A608D
:100BF0006368002B00F09980FFF7CAFE07466B4B35
:100C00001B6813F4003F5ED1FFF7C2FEC01B6428CF
:100C1000F5D903238FE2654BD3F894301B0903F019
:100C2000F0039FE7FFF7BAFE002840F07D825F4B9C
:100C30001A6842F008021A601A6822F0F002216A6B
:100C40000A431A605A6822F47F42E16942EA0122AB
:100C50005A609DE7206AFFF7A1FE002898D0012383
:100C600069E2524B1A6842F008021A601A6822F0D0
:100C7000F002216A0A431A605A6822F47F42E1694D
:100C800042EA01225A6098E7484A136823F00103B8
:100C90001360FFF77DFE0746444B1B6813F0020FFD
:100CA0008BD0FFF775FEC01B0228F5D9032342E263
:100CB000032E8BD13D4B1B6813F4003F03D06368B8
:100CC000002B00F03382236813F0020F4FD0042D65
:100CD0003CD00C2D38D0E368002B78D0334A136811
:100CE00043F480731360FFF753FE06462F4B1B68D7
:100CF00013F4806F62D1FFF74BFE801B0228F5D9F9
:100D0000032318E2294A136843F4803313606FE722
:100D100003F18043A3F53C331A6842F480221A6041
:100D20001A6842F480321A6062E7FFF731FE074624
:100D30001E4B1B6813F4003FC5D0FFF729FEC01BF4
:100D40006428F5D90323F6E1022EC4D1174B1B68A2
:100D500013F4806F03D0E368002B00F0E981134A9D
:100D6000536823F0F853216943EA01635360236811
:100D700013F0080F56D06369002B3CD00B4AD2F811
:100D8000943043F00103C2F89430FFF701FE0646A9
:100D9000064BD3F8943013F0020F43D1FFF7F8FD60
:100DA000801B0228F4D90323C5E100BF00100240D4
:100DB000744F00080800002004000020B24A536865
:100DC00023F0F853216943EA01635360CFE7AE4A49
:100DD000136823F480731360FFF7DAFD0646AA4B0D
:100DE0001B6813F4806FC2D0FFF7D2FD801B02286E
:100DF000F5D903239FE1A44AD2F8943023F00103EC
:100E0000C2F89430FFF7C4FD06469F4BD3F89430E8
:100E100013F0020F06D0FFF7BBFD801B0228F4D9A8
:100E2000032388E1236813F0040F7AD0964B9B6D5F
:100E300013F0805F0BD1944B9A6D42F080529A650B
:100E40009B6D03F080530193019B012600E0002677
:100E50008E4B1B6813F4807F26D0A368012B37D0FC
:100E6000052B3DD0884BD3F8902022F00102C3F827
:100E70009020D3F8902022F00402C3F89020A368B9
:100E8000002B3BD0FFF784FD07467F4BD3F8903013
:100E900013F0020F44D1FFF77BFDC01B41F28833F2
:100EA0009842F2D9032346E1784A136843F48073E9
:100EB0001360FFF76DFD0746744B1B6813F4807FCA
:100EC000CBD1FFF765FDC01B0228F5D9032332E122
:100ED0006D4AD2F8903043F00103C2F89030CEE76B
:100EE000694BD3F8902042F00402C3F89020D3F865
:100EF000902042F00102C3F89020C0E7FFF748FDC0
:100F00000746614BD3F8903013F0020F08D0FFF77B
:100F10003FFDC01B41F288339842F2D903230AE116
:100F2000E6B9236813F0200F35D0636AE3B1564A5F
:100F3000D2F8983043F00103C2F89830FFF728FD4B
:100F40000646514BD3F8983013F0020F23D1FFF728
:100F50001FFD801B0228F4D90323ECE04A4A936D5D
:100F600023F080539365DCE7474AD2F8983023F0AA
:100F70000103C2F89830FFF70BFD0646424BD3F849
:100F8000983013F0020F06D0FFF702FD801B0228F5
:100F9000F4D90323CFE0A36A002B00F0CB80022B0F
:100FA00017D00C2D00F0D080374A136823F08073DF
:100FB0001360FFF7EDFC0446334B1B6813F0007F12
:100FC00000F0A680FFF7E4FC001B0228F4D90323FD
:100FD000B1E02D4BDB6803F00301E26A914209D0D6
:100FE0000C2D00F0AB80284B1B6813F0806F36D0BF
:100FF0000123A0E003F07002216B0139B2EB011F65
:10100000EED103F4FE42616BB2EB012FE8D103F0A5
:101010007842A16BB2EBC16FE2D103F4C001E26B85
:101020005208013AB1EB425FDAD103F0C063226C9F
:101030005208013AB3EB426FD2D1134B1B6813F045
:10104000007F7DD1104B1A6842F080721A60DA6816
:1010500042F08072DA60FFF79BFC044651E00A4AD6
:10106000136823F080731360FFF792FC0546064B6C
:101070001B6813F0007F0BD0FFF78AFC401B02288F
:10108000F5D9032357E000BF001002400070004074
:101090002E4AD3682E491940E36A206B013843EA8F
:1010A0000013606B43EA0023E06B4008013843EA19
:1010B0004053206C4008013843EA4063A06B43EA88
:1010C000C0630B43D360136843F080731360D3682D
:1010D00043F08073D360FFF75BFC04461B4B1B6837
:1010E00013F0007F06D1FFF753FC001B0228F5D94F
:1010F000032320E000231EE0FFF74AFC001B022828
:1011000020D8124B1B6813F0007FF5D0002312E0AB
:101110000E4AD1680F4B0B40D36000230BE0012334
:1011200018467047012306E0012304E0012302E092
:10113000012300E00023184603B0F0BD0123FAE7C5
:101140000023F8E70323F6E70123F4E70010024049
:101150008C809D01FCFFEEFE002800F0B28070B58F
:1011600004465A4B1B6803F007038B420CD2574AC4
:10117000136823F007030B431360136803F007039E
:101180008B4201D0012070BD236813F0020F0CD0F8
:10119000A2684F4B9B6803F0F0039A4205D94C4874
:1011A000836823F0F0031A4382600D46236813F02E
:1011B000010F39D06368032B09D0022B26D063BB03
:1011C000434A126812F0020F06D10120DBE7404AC1
:1011D000126812F0007F76D03D498A6822F003023F
:1011E00013438B60FFF7D4FB0646394B9B6803F033
:1011F0000C036268B3EB820F16D0FFF7C9FB801BAC
:1012000041F288339842F0D90320BCE7304A126893
:1012100012F4003FE0D10120B5E72D4A126812F424
:10122000806FD9D10120AEE7236813F0020F0CD0F4
:10123000A268274B9B6803F0F0039A4205D2244929
:101240008B6823F0F0031A438A60204B1B6803F07D
:101250000703AB420CD91D4A136823F007032B4345
:101260001360136803F00703AB4201D001208AE743
:10127000236813F0040F06D0154A936823F4E06343
:10128000E1680B439360236813F0080F07D0104AFE
:10129000936823F46053216943EAC1039360FFF725
:1012A000C5FB0B4B9B68C3F303130A4AD35C03F0E3
:1012B0001F03D840084B1860084B1868FFF724FB41
:1012C00061E70120704701205DE700BF0020024078
:1012D00000100240744F00080800002004000020A5
:1012E000014B1868704700BF0800002008B5FFF7E1
:1012F000F7FF054B9B68C3F30223044AD35C03F05A
:101300001F03D84008BD00BF00100240844F0008F2
:1013100008B5FFF7E5FF054B9B68C3F3C223044AFA
:10132000D35C03F01F03D84008BD00BF001002408B
:10133000844F0008F8B5594BDB6813F0030F18D041
:10134000564BDB6803F003030268934202D0012589
:101350002846F8BD002A00F09F80504BDB68C3F39D
:10136000021301334268934201D00125F0E70025C2
:101370001AE00368022B58D0032B5DD0012B01D05B
:1013800001250FE0454A126812F0020F60D0434D6C
:10139000EA6822F073024468013C43EA04131343F1
:1013A000EB600025002DD3D10F4604463B4A13685D
:1013B00023F080631360FFF7EBFA0646374B1B6898
:1013C00013F0006F05D0FFF7E3FA801B0228F5D970
:1013D0000325002DBCD1002F3CD130490B6923F0EF
:1013E000784323F4FE43A068E268D20642EA002272
:1013F00013430B61294A136843F080631360FFF7BE
:10140000C7FA0646254B1B6813F0006F05D1FFF79E
:10141000BFFA801B0228F5D90325002D98D11F4A59
:101420001369A1690B43136192E71C4A126812F415
:10143000806FACD10125B5E7184A126812F4003F5D
:10144000A5D1164A126812F4802FA0D10125A9E770
:101450000125A7E7012F0FD01048026922F0C062D2
:1014600022F4FE42A16863695B08013B5B0643EA24
:10147000012313430361BDE70848026922F4C00257
:1014800022F4FE42A16823695B08013B5B0543EA45
:10149000012313430361ADE7012559E70010024022
:1014A0002DE9F04182B00446036813F4006F26D0A2
:1014B000436CB3F5000F06D0B3F5400F1DD09BB1C0
:1014C000012637461DE0BB4AD36843F48033D3601E
:1014D0000027B84AD2F8883023F44003616C0B43EC
:1014E000C2F8883000260CE000210430FFF722FF0C
:1014F00007460028EDD0064603E00027E9E700266E
:101500003746236813F4003F6BD0AA4B9B6D13F052
:10151000805F4CD1A74B9A6D42F080529A659B6DCB
:1015200003F080530193019B4FF00108A24A136816
:1015300043F480731360FFF72BFA05469E4B1B683C
:1015400013F4807F05D1FFF723FA401B0228F5D959
:101550000327002F40D1974BD3F8903013F44073FA
:1015600015D0A26D9A4212D0924AD2F8903023F44C
:101570004073D2F8901041F48031C2F89010D2F844
:10158000901021F48031C2F89010C2F8903013F01E
:10159000010F0FD1002F40F0E380864AD2F890303F
:1015A00023F44073A16D0B43C2F8903015E04FF067
:1015B0000008BBE7FFF7ECF905467E4BD3F8903007
:1015C00013F0020FE6D1FFF7E3F9401B41F2883335
:1015D0009842F2D90327DDE73E46B8F1000F40F00C
:1015E000C180236813F0010F08D0724AD2F8883006
:1015F00023F00303216A0B43C2F88830236813F0F9
:10160000020F08D06B4AD2F8883023F00C03616ACD
:101610000B43C2F88830236813F0040F08D0654AE2
:10162000D2F8883023F03003A16A0B43C2F8883027
:10163000236813F0200F08D05E4AD2F8883023F4D4
:101640004063E16A0B43C2F88830236813F4007FDB
:1016500008D0584AD2F8883023F44023E16B0B437A
:10166000C2F88830236813F4806F08D0514AD2F84A
:10167000883023F44013216C0B43C2F88830236870
:1016800013F0400F08D04B4AD2F8883023F440536F
:10169000216B0B43C2F88830236813F0800F08D009
:1016A000444AD2F8883023F44043616B0B43C2F8BC
:1016B0008830236813F4807F08D03E4AD2F88830FF
:1016C00023F44033A16B0B43C2F88830236813F432
:1016D000002F0FD0374AD2F8883023F04063A16C36
:1016E0000B43C2F88830A36CB3F1006F40D0B3F164
:1016F000806F42D0236813F4802F0FD02D4AD2F888
:10170000883023F04063E16C0B43C2F88830E36C0F
:10171000B3F1006F39D0B3F1806F3BD0236813F47D
:10172000804F0CD0234AD2F8883023F04053216DEB
:101730000B43C2F88830236DB3F1805F32D0236849
:1017400013F4004F08D01B4AD2F8883023F08043AE
:10175000616D0B43C2F88830304602B0BDE8F081BD
:101760003E463AE7134A936D23F08053936538E77A
:10177000D36843F48013D360BCE70121201DFFF739
:10178000D9FD0028B6D00646B4E7D36843F48013E9
:10179000D360C3E70121201DFFF7CCFD0028BDD099
:1017A0000646BBE70221201DFFF7C4FD0028C6D076
:1017B0000646C4E70010024000700040F0B482B05A
:1017C00000235BE086685F000325BD4026EA05062E
:1017D000CD68BD4035438560466826EA04064D68FD
:1017E000C5F300149C403443446055E0DD080835DF
:1017F00050F8257003F00704A6000F24B44027EA30
:1018000004070C69B4403C4340F8254058E00424E8
:1018100000E00024B4403C4302354C4E46F82540DD
:101820004B4CA568D44304EA05064F6817F4801FA3
:1018300001D042EA0506464DAE60ED6804EA0506B1
:101840004F6817F4001F01D042EA0506404DEE60D4
:101850006D6804EA05064F6817F4003F01D042EABC
:1018600005063B4D6E602D682C404E6816F4803F97
:1018700001D042EA0504364A146001330A6832FA9C
:1018800003F45FD001249C402240F6D04D6805F05F
:101890000305013D012D95D94C6804F00304032C88
:1018A00009D0C5685E000324B44025EA04058C68AD
:1018B000B4402C43C4604C6804F00304022C95D05F
:1018C00005685E000324B44025EA04054C6804F072
:1018D0000304B4402C4304604C6814F4403FCCD063
:1018E0001C4C256E45F001052566246E04F00104AC
:1018F0000194019C9D08AE1C144C54F8267003F012
:101900000304A6000F24B44027EA0407B0F1904F67
:101910003FF47FAF104CA0420ED004F58064A0428B
:101920000CD004F58064A0420AD004F58064A04283
:101930003FF46DAF07246DE701246BE7022469E7EC
:10194000032467E702B0F0BC704700BF000001400D
:10195000000401400010024000040048024B1868D7
:1019600000F4C060704700BF00700040B0F5007F19
:101970000FD01F4B1B6803F4C063B3F5806F34D0E6
:101980001B4A136823F4C06343F480631360002090
:101990007047174B1B6803F4C063B3F5007F22D078
:1019A000134A136823F4C06343F400731360114BAC
:1019B0001A68322303FB02F30F4AA2FB03239B0C9A
:1019C000013300E0013B0A4A526912F4806F01D0F2
:1019D000002BF7D1064B5B6913F4806F01D1002017
:1019E000704703207047002070470020704700BFF9
:1019F000007000400800002083DE1B43074AD368C4
:101A000023F4E0631B041B0C000200F4E0601843A5
:101A100040F0BF6040F40030D060704700ED00E05F
:101A200030B4174BDB68C3F30223C3F10704042C63
:101A300028BF04241D1D062D18D9033B4FF0FF3588
:101A400005FA04F421EA0401994005FA03F322EAB5
:101A50000303194300280BDB0901C9B200F1604000
:101A600000F5614080F8001330BC70470023E5E7C3
:101A700000F00F000901C9B2024B1954F4E700BF8E
:101A800000ED00E014ED00E0002807DB00F01F028D
:101A9000400901239340024A42F82030704700BFBA
:101AA00000E100E00138B0F1807F0AD2064B5860B7
:101AB000064AF02182F823100020986007221A605D
:101AC00070470120704700BF10E000E000ED00E02B
:101AD00090F83D30DBB2012B01D00120704702238A
:101AE00080F83D300268D36843F00103D360036897
:101AF000104A93420CD0B3F1804F09D002F5A052A6
:101B0000934205D01A6842F001021A600020704723
:101B10009968094A0A40062A08D0B2F5803F07D0E2
:101B20001A6842F001021A600020704700207047D6
:101B300000207047002C01400700010070477047EB
:101B400070477047704770B505460368DE681C69CA
:101B500014F0020F10D016F0020F0DD06FF0020239
:101B60001A610123037703689B6913F0030F64D0A4
:101B7000FFF7E6FF00232B7714F0040F12D016F0C6
:101B8000040F0FD02B686FF004021A6102232B7729
:101B90002B689B6913F4407F55D02846FFF7D0FF90
:101BA00000232B7714F0080F12D016F0080F0FD077
:101BB0002B686FF008021A6104232B772B68DB690E
:101BC00013F0030F46D02846FFF7BAFF00232B7708
:101BD00014F0100F12D016F0100F0FD02B686FF00A
:101BE00010021A6108232B772B68DB6913F4407FFE
:101BF00037D02846FFF7A4FF00232B7714F0010FFE
:101C000002D016F0010F33D114F0800F02D016F07D
:101C1000800F35D114F4807F02D016F0800F37D1B9
:101C200014F0400F02D016F0400F39D114F0200FFD
:101C300002D016F0200F3BD170BDFFF780FF284681
:101C4000FFF77FFF96E72846FFF779FF2846FFF763
:101C500078FFA5E72846FFF772FF2846FFF771FFD8
:101C6000B4E72846FFF76BFF2846FFF76AFFC3E794
:101C70002B686FF001021A612846FFF75FFFC3E788
:101C80002B686FF080021A61284600F081F8C1E7E6
:101C90002B686FF480721A61284600F07AF8BFE76B
:101CA0002B686FF040021A612846FFF74BFFBDE733
:101CB0002B686FF020021A61284600F068F8BBE735
:101CC00003681A4A904202D0B0F1804F03D123F04A
:101CD00070034A681343154A90420AD0B0F1804F0E
:101CE00007D002F5A052904203D002F580629042E4
:101CF00003D123F44073CA68134323F080034A6975
:101D0000134303608B68C3620B688362074B98427E
:101D100007D003F5A053984203D003F5806398429F
:101D200001D10B690363012343617047002C01401B
:101D300058B310B5044690F83D300BB3022384F835
:101D40003D30211D2068FFF7BBFF012384F8483098
:101D500084F83E3084F83F3084F8403084F84130D5
:101D600084F8423084F8433084F8443084F84530B5
:101D700084F8463084F8473084F83D30002010BDA8
:101D800080F83C30FEF794FDD8E70120704770479B
:101D900070477047026852E8003F23F4907342E8AE
:101DA00000310029F6D1026802F1080353E8003F30
:101DB00023F00103083242E800310029F3D1036E19
:101DC000012B06D02023C0F88030002303668366F1
:101DD0007047026852E8003F23F0100342E80031E8
:101DE0000029F6D1EEE700002DE9D8480446016845
:101DF00083680269134342691343C2691343086845
:101E00009A4A024013430B602268536823F44053FC
:101E1000E1680B435360A1692268954B9A4201D057
:101E2000236A1943936823F430630B439360236858
:101E3000904A93421FD0904A934230D08F4A9342A7
:101E400046D08B4A934259D0102289498B4276D092
:101E5000E369B3F5004F00F0A480082A00F2FF8088
:101E6000DFE812F0CF00E600CD00FD00E900FD0044
:101E7000FD00FD00EC0002F55842D2F8882002F087
:101E80000302032A09D8DFE802F002045206012205
:101E9000DBE70422D9E70822D7E71022D5E702F5CD
:101EA000E632D2F8882002F00C020C2A0ED8DFE8C5
:101EB00002F0070D0D0D090D0D0D400D0D0D0B0060
:101EC0000022C2E70422C0E70822BEE71022BCE7D6
:101ED00002F5E432D2F8882002F03002102A09D04C
:101EE00005D9202A27D0302A06D10822ADE71AB911
:101EF0000022AAE70422A8E71022A6E702F5C832CA
:101F0000D2F8882002F44062B2F5806F0BD007D976
:101F1000B2F5006F11D0B2F5406F06D1082294E7F8
:101F20001AB9002291E704228FE710228DE70222DE
:101F30008BE7022289E7022287E7022285E7082A47
:101F40007FD8DFE802F0087E107E0D7E7E7E0500E1
:101F50004FF4004008E0FFF7C9F928B9002062E01B
:101F6000FEF764FDF9E74648626802EB42038342EC
:101F700069D8B0EB023F68D80023070E060250086C
:101F800016EB000B47F1000C58466146FEF778F956
:101F9000A0F540723B4B9A4259D82368D860002084
:101FA00041E0082A55D8DFE802F0072105542454FF
:101FB00054542700324803E0FFF798F900284AD02C
:101FC0006268530803EB4000B0FBF2F0A0F110028E
:101FD0004FF6EF739A4240D883B223F00F03C0F359
:101FE000420018432368D86000201CE0FFF790F9F6
:101FF000E4E7FEF71BFDE1E74FF40040E0E720488F
:1020000002E0FFF773F960B3636800EB5300B0FBC5
:10201000F3F0A0F110024FF6EF739A4223D8236831
:1020200080B2D86000200023A366E366BDE8D888AC
:10203000FFF76EF9E7E7FEF7F9FCE4E74FF400403D
:10204000E2E70120EFE70120EDE70120EBE70120C7
:10205000E9E70120E7E70020E5E70120E3E70120C9
:10206000E1E70020DFE70120DDE700BFF369FFEFD4
:10207000008000400038014000440040004800401B
:102080000024F400FFFC0F00436A13F0080F06D091
:102090000268536823F40043416B0B435360436A67
:1020A00013F0010F06D00268536823F40033816AED
:1020B0000B435360436A13F0020F06D00268536863
:1020C00023F48033C16A0B435360436A13F0040F57
:1020D00006D00268536823F48023016B0B435360DE
:1020E000436A13F0100F06D00268936823F48053FC
:1020F000816B0B439360436A13F0200F06D0026894
:10210000936823F40053C16B0B439360436A13F04D
:10211000400F0AD00268536823F48013016C0B430C
:102120005360036CB3F5801F0BD0436A13F0800F2C
:1021300006D00268536823F40023816C0B4353607C
:1021400070470268536823F4C003416C0B4353602B
:10215000EBE72DE9F04104460F4616469846069DEA
:102160002368DB6937EA03030CBF01230023B34272
:1021700030D1B5F1FF3FF3D0FEF70AFCA0EB080029
:10218000A8422AD85DB323681A6812F0040FE7D07A
:10219000DA6912F0080F11D1DA6912F4006FDFD09A
:1021A0004FF400621A622046FFF7F4FD2023C4F8C2
:1021B0008430002384F8783003200CE008251D6269
:1021C0002046FFF7E7FDC4F88450002384F87830F8
:1021D000012000E00020BDE8F0810320FBE70320A0
:1021E000F9E72DE9F04182B01E46C36F202B56D18E
:1021F00004460D469046002956D00AB901234FE007
:102200000023C0F884302123C367FEF7C1FB0746D3
:10221000A4F85080A4F85280A368B3F5805F02D080
:102220004FF0000817E0236913B14FF0000812E0E7
:10223000A84600250FE02023E367032330E038F8A9
:10224000023B2268C3F308031385B4F85230013B04
:102250009BB2A4F85230B4F852309BB27BB10096D6
:102260003B46002280212046FFF773FF0028E2D181
:10227000002DE4D0236815F8012B1A85E5E70096B8
:102280003B46002240212046FFF763FF034610B97A
:102290002022E26704E02023E367032300E0022317
:1022A000184602B0BDE8F0810123F9E730B583B0EC
:1022B00004460023C0F88430FEF76AFB0546236815
:1022C0001B6813F0080F0FD123681B6813F0040F6D
:1022D00026D12023E367C4F88030002020666066A2
:1022E00084F8780003B030BD6FF07E43009303465E
:1022F00000224FF400112046FFF72BFF0028E3D007
:10230000226852E8003F23F0800342E800310029B0
:10231000F6D12023E367002384F878300320E1E737
:102320006FF07E4300932B4600224FF4800120463D
:10233000FFF70FFF0028CCD0226852E8003F23F4BB
:10234000907342E800310029F6D1226802F10803B7
:1023500053E8003F23F00103083242E8003100292E
:10236000F3D12023C4F88030002384F87830032090
:10237000B8E700283CD0F8B504461D4617460E467F
:10238000C36F63B32423E3672268136823F0010358
:102390001360636A43BB2046FFF726FD01281DD06A
:1023A0002268936843F4804393602368996821F41A
:1023B00000410E439E602D0445EA47552368196885
:1023C00021F07F7121F4403129431960226813689C
:1023D00043F0010313602046FFF768FFF8BD80F863
:1023E000783002F0B9F8CDE72046FFF74DFED2E78E
:1023F00001207047034AD2F8883043F47003C2F8D2
:102400008830704700ED00E000F1080343604FF0B2
:10241000FF328260C36003610023036070470023C2
:102420000361704743684B609A688A609A6851609C
:1024300099600861036801330360704730B40D6828
:10244000B5F1FF3F02D000F1080202E0026904E0AA
:102450001A4653681C68AC42FAD953684B609960BD
:102460008A605160086103680133036030BC7047C3
:1024700003694268816891608268416851605A6866
:10248000824206D0002202611A68013A1A60186876
:10249000704782685A60F5E710B5044601F0C2FE45
:1024A000A26BE36B9A4204D0002401F0DDFE2046CB
:1024B00010BD0124F9E710B5044601F0B3FEA36B8B
:1024C00023B1002401F0D0FE204610BD0124F9E71D
:1024D00070B504461646856B026C5AB903681BB189
:1024E00000200135A56370BD806801F06BF9002301
:1024F000A360F6E76EB9406802F0C8F8226C636822
:1025000013446360A268934219D323686360002078
:10251000E7E7C06802F0BAF8226C5242E36813445D
:10252000E36021688B4202D2A3681A44E260022E63
:1025300001D00020D5E725B1013D0020D1E70020E2
:10254000CFE70020CDE7026C72B110B5C368134429
:10255000C3608468A34201D30368C3600C46C168AA
:10256000204602F093F810BD704738B5054601F0DB
:1025700059FE95F8454064B203E001F03DF8013C96
:1025800064B2002C08DD6B6A33B105F1240000F061
:10259000A1FF0028F3D0F0E7FF2385F8453001F0D4
:1025A00063FE01F03FFE95F8444064B203E001F0A1
:1025B00023F8013C64B2002C08DD2B6933B105F12E
:1025C000100000F087FF0028F3D0F0E7FF2385F824
:1025D000443001F049FE38BD38B540B94FF05003E2
:1025E00083F31188BFF36F8FBFF34F8FFEE704466D
:1025F0000D4601F017FE2168E26B236C03FB02100D
:10260000A0600020A0636160013A02FB0313E36055
:10261000FF2384F8443084F84530A5B923691BB9F9
:1026200001F022FE012038BD04F1100000F052FF3D
:102630000028F5D0084B4FF080521A60BFF34F8F3F
:10264000BFF36F8FECE704F11000FFF7DDFE04F13C
:102650002400FFF7D9FEE3E704ED00E038B51D469E
:10266000049C0B4649B92460E063236401212046A1
:10267000FFF7B2FF84F84C5038BD2260F4E740B950
:102680004FF0500383F31188BFF36F8FBFF34F8F69
:10269000FEE710B584B0044653B192B189B94FF04A
:1026A000500383F31188BFF36F8FBFF34F8FFEE7A3
:1026B0004FF0500383F31188BFF36F8FBFF34F8F39
:1026C000FEE74AB941B14FF0500383F31188BFF3DD
:1026D0006F8FBFF34F8FFEE7502003900398502871
:1026E00008D04FF0500383F31188BFF36F8FBFF30F
:1026F0004F8FFEE720461C46039B012384F846309B
:1027000000949DF81830FFF7A9FF204604B010BDD3
:1027100040B94FF0500383F31188BFF36F8FBFF3BD
:102720004F8FFEE7F0B583B0054617460E4601FB16
:1027300000F0503001F038FC044650B1002380F81E
:10274000463000903B4600F1500231462846FFF7E4
:1027500085FF204603B0F0BDF0B585B0019260B1B1
:10276000044699B9026C8AB14FF0500383F3118883
:10277000BFF36F8FBFF34F8FFEE74FF0500383F32C
:102780001188BFF36F8FBFF34F8FFEE7022B0BD182
:10279000E26B012A08D04FF0500383F31188BFF396
:1027A0006F8FBFF34F8FFEE71E460F4600F0FAFF14
:1027B00050B9019B53B14FF0500383F31188BFF31D
:1027C0006F8FBFF34F8FFEE700253AE0002538E01A
:1027D000324639462046FFF77BFE636A4BB9A8B103
:1027E0003B4B4FF080521A60BFF34F8FBFF36F8F98
:1027F0000CE004F1240000F06DFE38B1344B4FF0D2
:1028000080521A60BFF34F8FBFF36F8F01F02CFD22
:10281000012005B0F0BD01F027FD0020F9E702A876
:1028200000F09EFE012519E0002384F8443021E0E9
:10283000002384F8453023E02046FFF796FE00F0A1
:1028400003FD01F0EFFCA26BE36B9A42C0D3022EB2
:10285000BED0019B002BDED0002DE0D001F004FDA6
:1028600000F052FC01F0DEFC94F844305BB2B3F1AE
:10287000FF3FD9D094F845305BB2B3F1FF3FD7D0DA
:1028800001F0F2FC01A902A800F076FEC8B92046CA
:10289000FFF702FE0028CFD0019904F1100000F0EC
:1028A000E5FD2046FFF761FE00F0CEFC0028C8D110
:1028B000074B4FF080521A60BFF34F8FBFF36F8FFB
:1028C000BFE72046FFF751FE00F0BEFC0020A0E766
:1028D00004ED00E048B108B5002181600160C160ED
:1028E0000B460A46FFF738FF08BD704710B5024691
:1028F00000210120FFF70CFF0446FFF7EBFF204605
:1029000010BD10B582B000900B4600221146012088
:10291000FFF7B5FE0446FFF7DDFF204602B010BD0D
:102920002DE9F84360B1044699B9006C88B14FF0C5
:10293000500383F31188BFF36F8FBFF34F8FFEE710
:102940004FF0500383F31188BFF36F8FBFF34F8FA6
:10295000FEE7022B0BD1E06B012808D04FF05003AB
:1029600083F31188BFF36F8FBFF34F8FFEE71F46CE
:102970009046894601F080FDEFF311864FF0500339
:1029800083F31188BFF36F8FBFF34F8FA26BE36B9D
:102990009A4203D3022F01D0002010E094F8455052
:1029A0006DB2A36B3A4649462046FFF791FDB5F15B
:1029B000FF3F08D06B1C5BB284F84530012086F3E2
:1029C0001188BDE8F883636A5BB104F1240000F06C
:1029D00081FD40B1B8F1000F07D00120C8F8000018
:1029E000EDE70120EBE70120E9E70120E7E7000040
:1029F000F0B585B0019260B1044699B9036C8BB112
:102A00004FF0500383F31188BFF36F8FBFF34F8FE5
:102A1000FEE74FF0500383F31188BFF36F8FBFF3CE
:102A20004F8FFEE70F4600F0BDFE50B9019B53B13A
:102A30004FF0500383F31188BFF36F8FBFF34F8FB5
:102A4000FEE700263EE000263CE039462046FFF740
:102A50007AFD013DA563236923B901F005FC01203E
:102A600005B0F0BD04F1100000F034FD0028F4D0F2
:102A7000344B4FF080521A60BFF34F8FBFF36F8F0C
:102A8000EBE701F0F1FB0020EAE702A800F068FDA7
:102A9000012621E0002384F8443029E0002384F853
:102AA00045302BE02046FFF760FD00F0CDFB09E04C
:102AB0002046FFF75AFD00F0C7FB2046FFF7FBFC5E
:102AC00000283DD101F0AEFBA56B002DBDD1019BCF
:102AD000002BD6D0002ED8D001F0C6FB00F014FB9E
:102AE00001F0A0FB94F844305BB2B3F1FF3FD1D0CA
:102AF00094F845305BB2B3F1FF3FCFD001F0B4FBA7
:102B000001A902A800F038FD0028D1D12046FFF726
:102B1000D2FC0028C6D0019904F1240000F0A6FCE4
:102B20002046FFF722FD00F08FFB0028CAD1054B9D
:102B30004FF080521A60BFF34F8FBFF36F8FC1E722
:102B400000208DE704ED00E00023072B0CD8074A96
:102B500052F833200AB10133F7E7044A42F8331040
:102B600002EBC30358607047704700BFBC1B0020D6
:102B700070B504460D46164601F054FB94F84430F7
:102B80005BB2B3F1FF3F0DD094F845305BB2B3F1C7
:102B9000FF3F0BD001F068FBA36B5BB12046FFF752
:102BA000E4FC70BD002384F84430EDE7002384F892
:102BB0004530EFE73246294604F1240000F06EFC70
:102BC000ECE7002301E0013001330278A52AFAD0B6
:102BD000C3F38F0070470000084B1B681B683BB1B4
:102BE000064B1B68DB68DB685A68054B1A60704748
:102BF000034B4FF0FF321A60704700BF740700208C
:102C0000480800202DE9F04781460D4617469A46B0
:102C1000089EDDF824800A9C9200A521206B01F01B
:102C200040FD236B07F18042013A03EB820727F056
:102C30000707676495B300230F2B07D8E95CE218F8
:102C400082F83410EA5C0AB10133F5E7002384F816
:102C50004330062E00D90626E66226650025656506
:102C6000201DFFF7DCFB04F11800FFF7D8FB2461FF
:102C7000C6F10706A6616462A565E565256684F868
:102C8000645052464946384601F0A4FA2060B8F133
:102C9000000F01D0C8F80040BDE8F087002384F899
:102CA0003430D6E738B5002407E004EB8402930003
:102CB0000E481844FFF7A8FB0134062CF5D90C4D3B
:102CC0002846FFF7A1FB0B4C2046FFF79DFB0A4867
:102CD000FFF79AFB0948FFF797FB0948FFF794FBBA
:102CE000084B1D60084B1C6038BD00BF7C070020EE
:102CF000200800203408002054080020800800200C
:102D00006C080020740700207807002010B50446E6
:102D100001F088FA214A136801331360204B1B68C5
:102D20005BB1204B1B686BB91D4B1B68DA6AE36A09
:102D30009A4207D81A4B1C6004E0194B1C601368B8
:102D4000012B27D0184A136801331360A364E36A88
:102D500001229A401549086802430A6003EB830385
:102D60009A00211D12481044FFF75CFB01F07CFA29
:102D70000C4B1B686BB10A4B1B68DA6AE36A9A4218
:102D800007D20C4B4FF080521A60BFF34F8FBFF346
:102D90006F8F10BDFFF786FFD4E700BF0C0800203F
:102DA0007007002068080020180800201C08002078
:102DB0007C07002004ED00E010B5044690F8653073
:102DC00033B9006B01F084F9204601F081F910BDA0
:102DD000012B0AD0022BFAD04FF0500383F3118855
:102DE000BFF36F8FBFF34F8FFEE701F071F9EEE78E
:102DF0000F4B1B68D3B110B501F014FA0D4BDB6813
:102E0000DC68201DFFF734FB0B4A1368013B13609D
:102E1000074A1368013B136001F026FA2046FFF7CA
:102E2000CBFF034B1B68002BE6D110BD704700BFE2
:102E300010080020800800200C08002070B504460F
:102E40000E461D4B1D681D4B18680430FFF710FB24
:102E500050B91A4B1B68DA6A012303FA02F21849C7
:102E60000B6823EA02030B60B4F1FF3F13D02C443C
:102E7000124B1B685C60A54216D8124B18680F4BAA
:102E800019680431FFF7DAFA0F4B1B68A34212D915
:102E90000D4B1C600FE0002EE9D0084B196804317F
:102EA0000A48FFF7BFFA06E0094B1868034B196898
:102EB0000431FFF7C3FA70BD9408002070070020AA
:102EC0001C08002074070020480800206C0800201F
:102ED0007807002008B501E0FDF7A6FBFFF788FFA3
:102EE000064B1B68012BF7D9054B4FF080521A6037
:102EF000BFF34F8FBFF36F8FEEE700BF7C0700205B
:102F000004ED00E070B586B00B9D0C9C45B94FF008
:102F1000500383F31188BFF36F8FBFF34F8FFEE72A
:102F200044B94FF0500383F31188BFF36F8FBFF3A1
:102F30004F8FFEE76C260496049E6C2E08D04FF04F
:102F4000500383F31188BFF36F8FBFF34F8FFEE7FA
:102F5000049E2563022584F865500025039502949C
:102F600005AD01950A9D0095FFF74CFE2046FFF741
:102F7000CDFE059806B070BD2DE9F04385B007463B
:102F8000884615469946900001F00EF808B30646AB
:102F90006C2001F009F80446B8B10663E4B10023DF
:102FA00084F86530039302940D9B01930C9B00936E
:102FB0004B462A4641463846FFF724FE2046FFF797
:102FC000A5FE012005B0BDE8F083304601F080F891
:102FD000E4E74FF0FF30F5E74FF0FF30F2E7000095
:102FE000F8B5D0B104461D4B1B68834229D001F0CF
:102FF00019F965691A4B1F681A4B1E6801F034F9FC
:10300000BD4220D0B54220D0174B9D420ED0174B69
:103010009D4220D09DB1012014E04FF0500383F376
:103020001188BFF36F8FBFF34F8FFEE7A36A73B9A9
:1030300094F86430DBB2012B0BD1022002E00420B3
:1030400000E00020F8BD0220FCE70220FAE70220A1
:10305000F8E70320F6E70420F4E700BF700700203C
:1030600074070020780700206C08002080080020EA
:1030700010B588B000240594069407AA06A905A8EF
:10308000FDF7C0FB059B0293069B0193009423462A
:10309000079A18491848FFF735FF40B100F07CFC4B
:1030A000012806D0B0F1FF3F1AD008B010BD0020B3
:1030B000F6E74FF0500383F31188BFF36F8FBFF330
:1030C0004F8F0E4B4FF0FF321A600D4B01221A60EA
:1030D0000C4B00221A60FDF70BFC01F045F9E4E708
:1030E0004FF0500383F31188BFF36F8FBFF34F8FFF
:1030F000FEE700BFBC4F0008D52E0008480800209E
:103100006808002094080020024A13680133136005
:10311000704700BF14080020014B1868704700BFBB
:1031200094080020014B1868704700BF0C0800206D
:10313000F8B53A4B1B68002B69D1394B1D68013536
:103140001D60C5B9374B1B681B6843B14FF0500376
:1031500083F31188BFF36F8FBFF34F8FFEE7314AC0
:103160001168314B186810601960304A13680133D8
:103170001360FFF731FD2E4B1B68AB423DD9002495
:103180002C4B1B68DB6A03EB83039A002A4B9B588A
:10319000012B00D90124294B1B68002B3CD00124B2
:1031A0003AE001241F4B1B681B6843B31D4B1B688F
:1031B000DB68DE6873689D4226D3371D3846FFF70B
:1031C00057F9B36A1BB106F11800FFF751F9F36A1A
:1031D00001229A401A49086802430A6003EB8303FC
:1031E0009A00394614481044FFF71CF9F26A114B53
:1031F0001B68DB6A9A42D4D2D4E70024D2E70C4B96
:103200004FF0FF321A60BBE7094A1360B8E70D4A76
:1032100013680133136000242046F8BD1408002011
:103220009408002074070020780700204C08002034
:1032300048080020700700207C0700209808002024
:103240001C0800205008002038B5334B1B6843B9D8
:103250004FF0500383F31188BFF36F8FBFF34F8F8D
:10326000FEE700F0DFFF2C4B1A68013A1A601B687A
:10327000002B4DD1294B1B6823B9002400F0F4FF2B
:10328000204638BD0024264B1B681BB3244BDB684B
:10329000DC6804F11800FFF7EBF8251D2846FFF75E
:1032A000E7F8E36A01229A401E49086802430A606F
:1032B00003EB83039A0029461B481044FFF7B2F83A
:1032C000E26A1A4B1B68DB6A9A42DCD3184B012274
:1032D0001A60D8E70CB1FFF77FFC164B1C6854B19D
:1032E000FFF726FF10B1124B01221A60013CF7D103
:1032F000104B00221A600E4B1B685BB10E4B4FF057
:1033000080521A60BFF34F8FBFF36F8F0124B5E770
:103310000024B3E70024B1E7140800200C080020C3
:10332000540800201C0800207C07002070070020A3
:10333000980800205008002004ED00E010B5A8B166
:1033400004460F4B1B6843B14FF0500383F31188C1
:10335000BFF36F8FBFF34F8FFEE7FFF7D5FE00215E
:103360002046FFF76BFDFFF76FFF38B9054B4FF0B5
:1033700080521A60BFF34F8FBFF36F8F10BD00BF35
:103380001408002004ED00E0314B1B681BB1314BE9
:1033900001221A60704710B52E4B00221A60FDF70B
:1033A000ADFA2D4B1B68984205D92C4A1168C31AF7
:1033B000CA6D1344CB65284B1860284B1A681268F5
:1033C0001B681B6B9A4205D8244B18681968343166
:1033D000FDF716FA214B1B68214A12689A66214BA9
:1033E0001B68B3FA83F3DBB2C3F11F0303EB830162
:1033F0008A001D498A5842B94FF0500383F311885F
:10340000BFF36F8FBFF34F8FFEE717489A00D418B2
:10341000A10001444C6864684C601A449100083172
:10342000084484420DD003EB83039A000E4B1344EF
:103430005B68DA68094B1A601B689A6E084B1A6061
:1034400010BD61680848142202FB03025160EAE7DC
:1034500014080020980800200808002070070020A9
:103460006C0700201C0800207C07002040B94FF0AA
:10347000500383F31188BFF36F8FBFF34F8FFEE7C5
:1034800010B50C46044B19681831FEF7D7FF01211F
:103490002046FFF7D3FC10BD7007002038B540B9B7
:1034A0004FF0500383F31188BFF36F8FBFF34F8F3B
:1034B000FEE70C461546064A11681831FEF7B2FFC2
:1034C0000DB14FF0FF3429462046FFF7B7FC38BD59
:1034D0007007002038B5C368DC6844B94FF050036A
:1034E00083F31188BFF36F8FBFF34F8FFEE704F1B3
:1034F00018052846FEF7BCFF134B1B68E3B9251DD2
:103500002846FEF7B5FFE36A01229A400F49086892
:1035100002430A6003EB83039A0029460C481044D7
:10352000FEF780FFE26A0B4B1B68DB6A9A4208D900
:103530000120094B186038BD29460848FEF772FF84
:10354000F0E70020F7E700BF140800201C08002067
:103550007C070020700700209808002054080020F5
:10356000034B1B680360034B1B684360704700BF3D
:103570004C08002094080020F8B550B1054689B9E0
:103580004FF0500383F31188BFF36F8FBFF34F8F5A
:10359000FEE74FF0500383F31188BFF36F8FBFF343
:1035A0004F8FFEE70C4600F03DFE114B196868682E
:1035B0000A1A2368B3F1FF3F16D02F680D4E366804
:1035C000B74201D0884211D9934203D80023236027
:1035D000012405E09B1A23602846FFF7C1FF002461
:1035E00000F042FE2046F8BD0024F9E70124F7E789
:1035F000940800204C080020014B01221A607047FB
:103600009808002070B50C4616460546D0B12560D6
:1036100005F134026260EA6A22612A6BE261AA6CF7
:10362000A2602A6D6261EA6DA261052B19D0124A6F
:103630001268AA4209D02373032B09D0B6B900231C
:10364000238470BD0C4A1568E1E700232373F5E776
:10365000FFF75AFDAB6A0BB102232373FFF7F4FDAA
:10366000ECE72846FFF7BCFC2073E7E7286BFFF781
:10367000A8FA2084E5E700BF700700202DE9F04795
:103680000B683BB34B685B684B6001F108094B4525
:1036900007D090460C4607464B68D3F80CA000258F
:1036A00010E05B684B60F4E76368DE6805EBC50318
:1036B00099004346012239443046FFF7A3FF013504
:1036C000B24508D063685B6863609945ECD15B687C
:1036D0006360E9E700252846BDE8F087F8B50746AE
:1036E0000C461646FFF710FD224B1B68A3423CD840
:1036F00007250024013D04EBC403980005EB850277
:10370000930001221C4919443844FFF7B7FF0444D1
:10371000002DEFD104EBC4039800184B1968022266
:103720003844FFF7ABFF044404EBC4039800144B88
:10373000196802223844FFF7A1FF044404EBC403D4
:10374000980004220F493844FFF798FF044404EB23
:10375000C403980003220C493844FFF78FFF044448
:1037600026B1FDF7CBF8306000E00024FFF76CFDD8
:103770002046F8BD0C0800207C07002074070020BC
:1037800078070020800800206C08002008B5034658
:1037900018B1186BFFF715FA08BD014B1B68F8E765
:1037A00070070020054B1B6833B1054B1B680BB13C
:1037B00000207047022070470120704768080020F1
:1037C00014080020002849D038B50446264A12685B
:1037D000824208D04FF0500383F31188BFF36F8FFC
:1037E000BFF34F8FFEE7426D42B94FF0500383F3B2
:1037F0001188BFF36F8FBFF34F8FFEE7013A426529
:10380000C06A216D88422BD062BB251D2846FEF779
:103810002FFE70B9E26A142303FB02F31349CB585D
:103820003BB9012303FA02F211490B6823EA0203B0
:103830000B60236DE362C3F10702A261012404FA65
:1038400003F20B49086802430A602946074A14201C
:1038500000FB0320FEF7E6FD204638BD0020704740
:103860000020FAE70020F8E7700700207C0700201E
:103870001C080020064B1A6813682BB9012303604B
:1038800023B9D368186870470023F8E70020704711
:103890009C08002008B54160006191420CD8D21A02
:1038A00083699A4201D3012010E0011D094B186879
:1038B000FEF7C4FD002009E09A4201D2994206D2E7
:1038C000011D054B1868FEF7B9FD002008BD012059
:1038D000FCE700BFA00800209C08002030B583B0A2
:1038E00000F0A0FC114B1B681BB100F0BDFC03B045
:1038F00030BD0F4D2846FEF787FD0E4C2046FEF7E3
:1039000083FD0D4B1D600D4B1C60002300930C4B81
:103910000C4A0C210A20FEF7B2FE044B1860002866
:10392000E3D00949FFF710F9DFE700BF980900204D
:103930001C090020300900209C080020A00800205D
:1039400048090020A4080020C44F00082DE9F041D8
:10395000079C41B94FF0500383F31188BFF36F8F79
:10396000BFF34F8FFEE70F46A4B11E4615468046B3
:10397000FFF7B4FFC4F80080A761E661069B2362ED
:10398000201DFEF74CFD2DB194F8283043F00403C0
:1039900084F82830BDE8F08110B588B0FFF79EFFAD
:1039A000124B1B68CBB100240594069407AA06A904
:1039B00005A8FCF733FF059B0293069B01930223A6
:1039C00000932346079A0A490A48FFF79BFA0A4BD5
:1039D000186010B1012008B010BD4FF0500383F300
:1039E0001188BFF36F8FBFF34F8FFEE79809002058
:1039F000CC4F0008753D00089C0900202DE9F041DE
:103A000082B005460E46174698462C2000F0CCFAA8
:103A1000044658B1002380F828300190089B009399
:103A200043463A4631462846FFF790FF204602B00B
:103A3000BDE8F08130B585B0099C2C250395039D28
:103A40002C2D08D04FF0500383F31188BFF36F8FF4
:103A5000BFF34F8FFEE7039D44B94FF0500383F34C
:103A60001188BFF36F8FBFF34F8FFEE7022584F8F5
:103A700028500194089D0095FFF768FF204605B087
:103A800030BD0000C8B130B585B015460446174AB0
:103A9000106840B31A4601910295039405291DDC74
:103AA000FFF780FE022811D000231A4601A90F4813
:103AB0000068FEF751FE05B030BD4FF0500383F3B0
:103AC0001188BFF36F8FBFF34F8FFEE70023089A73
:103AD00001A906480068FEF73FFEECE7002301A9B4
:103AE000FEF71EFFE7E70020E5E700BF980900208A
:103AF00070B582B01B4B1B681A6862B3DB681E6826
:103B0000DC68251D2846FEF7B3FC236A204698474B
:103B100094F8283013F0040FECD0A36933449E428C
:103B200007D26360246129460E4B1868FEF786FCB5
:103B3000E0E7002100910B4632462046FFF7A2FF46
:103B40000028D7D14FF0500383F31188BFF36F8F54
:103B5000BFF34F8FFEE7044A106802490860136004
:103B600002B070BD9C080020A008002038B50546B2
:103B7000FFF7D2FA0446074B1B68834205D800239F
:103B80002B60044B1C60204638BDFFF7B1FF0123BA
:103B90002B60F6E74409002070B582B005460E465A
:103BA000174B1B68DB68DC68201DFEF761FC94F88E
:103BB000283013F0040F08D123F0010384F82830D3
:103BC000236A2046984702B070BDA1692B46324651
:103BD00029442046FFF75EFE0028F1D00021009125
:103BE0000B462A462046FFF74DFF0028E8D14FF04C
:103BF000500383F31188BFF36F8FBFF34F8FFEE73E
:103C00009C08002070B582B006460C46FFF77CFA8F
:103C100001A8FFF7ABFF019B23BB05460CB9B042DF
:103C200017D224B1114B1B681B68CBB90124224663
:103C3000711B0F4B1868FEF79BFFFFF705FB98B948
:103C40000C4B4FF080521A60BFF34F8FBFF36F8F52
:103C50000AE0FFF7F9FA29463046FFF79DFF03E037
:103C60000024E4E7FFF7F0FA02B070BDA0080020DE
:103C70009809002004ED00E030B587B0002203A9C8
:103C80003B4B1868FEF7B4FE00286FD0039B002B57
:103C9000F4DB059C636913B1201DFEF7E9FB02A864
:103CA000FFF764FF039B092BE8D8DFE803F0050565
:103CB000053138510505313894F8283043F00103B7
:103CC00084F828300499A5690B4602462944204609
:103CD000FFF7E0FD0028D1D0236A2046984794F8EA
:103CE000283013F0040FC9D0A269002100910B46BF
:103CF000049802442046FFF7C5FE0028BED14FF0CD
:103D0000500383F31188BFF36F8FBFF34F8FFEE72C
:103D100094F8283023F0010384F82830AEE794F8B3
:103D2000283043F0010384F828300499A16131B1AF
:103D30000346024601442046FFF7ACFD9EE74FF0E4
:103D4000500383F31188BFF36F8FBFF34F8FFEE7EC
:103D500094F8283013F0020F04D023F0010384F804
:103D600028308BE7204600F0B3F987E707B030BD75
:103D70009809002000B583B001A8FFF77BFD0199E9
:103D8000FFF740FFFFF778FFF6E7842801D0033004
:103D900070470020704708B5FFF76AF9002008BD9A
:103DA0002DE9F04387B004460F464569A5B1866901
:103DB00096B1D0F80480D0F80090B0F90800FFF771
:103DC000E4FF22690296019500903B464946404631
:103DD000FFF798F8059013E065682668D4F810801E
:103DE000B4F90800FFF7D1FF05AB019300903B4603
:103DF0001FFA88F231462846FFF7BEF8012803D1A2
:103E0000059807B0BDE8F0830020FAE708B503463F
:103E100000B901231846FFF791FA002008BD000001
:103E200010B582B0134644686CB1012909D0002254
:103E300001680194009101210948FFF7FBFD02B0E0
:103E400010BD0122F4E7012907D00022016800918A
:103E500001210348FFF7D2FDF1E70122F6E700BF99
:103E6000644F000808B5416819B10120FEF749FD0B
:103E700008BD0120FEF73AFDFAE710B582B04368AD
:103E800063B101291AD103220092002211460120B8
:103E9000FEF7F5FB0446204602B010BD01290FD104
:103EA000032200210120FEF733FC04460028F2D053
:103EB00000231A461946FEF74FFCECE70024EAE718
:103EC0000024E8E710B582B082680AB1C36833B94C
:103ED000002241680068FEF71BFC02B010BD41687B
:103EE000006800240094FEF7CAFBF6E7124A12F0BD
:103EF000070F1ED0D11D21F00701C1F57A631344CD
:103F00000A460E480260002141601344083B23F03A
:103F100007030B48036059601960991A51601360D8
:103F2000084B1960084B1960084B4FF000421A60AB
:103F300070474FF47A63E4E7A40900205819002081
:103F4000A00900204C190020481900204419002025
:103F500010B4134B1A6882421BD359685C18844210
:103F600003D1406801445960184641684418A24290
:103F700013D10C4C2468A2420DD052681144416008
:103F80001A6812680260984200D018605DF8044B0D
:103F900070471346DEE70460F5E70260F3E700BF11
:103FA00058190020A009002070B50446FFF7ACF8AE
:103FB000414B1B68A3B1414B1B681C4213D0FFF758
:103FC00043F90026FCF71DFC16F0070F72D04FF0E6
:103FD000500383F31188BFF36F8FBFF34F8FFEE75A
:103FE000FFF784FFE7E794B1083414F0070F0ED011
:103FF00024F00704083404F0070343B14FF05003E2
:1040000083F31188BFF36F8FBFF34F8FFEE734B197
:104010002B4B1B68A34206D32A4B1D6809E0FFF710
:1040200013F90026CEE7FFF70FF90026CAE72B4663
:1040300015466A68A24202D22A68002AF7D11E4AAF
:104040001268AA4214D01E6808362A681A606B6883
:104050001B1B102B14D9281910F0070F0CD04FF090
:10406000500383F31188BFF36F8FBFF34F8FFEE7C9
:10407000FFF7EAF80026A5E743606C60FFF768FFEA
:104080006A680F490B689B1A0B600F4909688B42DD
:1040900001D20D490B60094B1B6813436B60002371
:1040A0002B600A4A136801331360FFF7CDF8002E26
:1040B0008AD187E7304670BDA0090020441900204E
:1040C00048190020581900204C19002050190020D0
:1040D000002834D038B50446A0F1080550F8042C67
:1040E000174909680A4208D14FF0500383F3118839
:1040F000BFF36F8FBFF34F8FFEE750F8080C40B14E
:104100004FF0500383F31188BFF36F8FBFF34F8FCE
:10411000FEE722EA010244F8042CFEF7F5FF54F80A
:10412000041C084A13680B4413602846FFF710FF6D
:10413000054A136801331360FFF786F838BD7047EE
:10414000441900204819002054190020014B186818
:10415000704700BF4C19002082B0002301930D4B23
:104160001B68B3F1FF3F08D04FF0500383F3118871
:10417000BFF36F8FBFF34F8FFEE74FF0500383F312
:104180001188BFF36F8FBFF34F8F019B002BFCD0C3
:1041900002B070470C00002008480068006880F3F7
:1041A00008884FF0000080F3148862B661B6BFF350
:1041B0004F8FBFF36F8F00DF00BF000008ED00E0FE
:1041C000DFF80C00016841F47001016070470000E5
:1041D00088ED00E04FF0807340F8043C21F00101CD
:1041E00040F8081C054B40F80C3C40F8202C6FF0C0
:1041F000020340F8243C4438704700BF594100088E
:10420000074B19680868B0E8F04F80F30988BFF3DE
:104210006F8F4FF0000080F311887047AFF300807C
:10422000700700204FF0500383F31188BFF36F8FA6
:10423000BFF34F8F0A4A136801331360012B00D07C
:104240007047084B1B6813F0FF0FF9D04FF0500375
:1042500083F31188BFF36F8FBFF34F8FFEE700BF6B
:104260000C00002004ED00E0094B1B6843B94FF03F
:10427000500383F31188BFF36F8FBFF34F8FFEE7B7
:10428000013B034A13600BB983F31188704700BFE9
:104290000C000020000000000000000000000000F2
:1042A000EFF30980BFF36F8F154B1A681EF0100FE4
:1042B00008BF20ED108A20E9F04F10602DE90900B9
:1042C0004FF0500080F31188BFF34F8FBFF36F8F13
:1042D000FFF75AF84FF0000080F3118809BC196805
:1042E0000868B0E8F04F1EF0100F08BFB0EC108A5D
:1042F00080F30988BFF36F8F704700BFAFF3008072
:104300007007002008B54FF0500383F31188BFF306
:104310006F8FBFF34F8FFEF70BFF18B1034B4FF0BA
:1043200080521A60002383F3118808BD04ED00E079
:10433000084A0023136008490B60084B1B680849B2
:10434000A1FB03139B09013B06490B600723136084
:10435000704700BF10E000E018E000E00800002017
:10436000D34D621014E000E03A4B1A683A4B9A427F
:104370000DD0384B1A68394B9A4211D14FF0500387
:1043800083F31188BFF36F8FBFF34F8FFEE74FF0BA
:10439000500383F31188BFF36F8FBFF34F8FFEE796
:1043A00010B582B02E4B1A78D2B20192FF221A7049
:1043B0001B78DBB28DF803309DF8033003F0500317
:1043C000284A1370284B07221A6009E0264A13680E
:1043D000013B13609DF803305B00DBB28DF80330C6
:1043E0009DF8033013F0800FF0D11F4B1B68032B97
:1043F00008D04FF0500383F31188BFF36F8FBFF3E2
:104400004F8FFEE71B0203F4E063174A1360019B22
:10441000DBB2134A1370154B1A6842F470021A602B
:104420001A6842F070421A60FFF782FF0024104BB6
:104430001C60FFF7C5FE0F4A136843F0404313604A
:10444000FFF7AAFEFEF7A0FFFFF786FE204602B0A8
:1044500010BD00BF00ED00E071C20F4170C20F41FE
:1044600000E400E0601900206419002020ED00E065
:104470000C00002034EF00E0EFF305830F2B0FD981
:10448000104A9B5CDBB2104A12789A4208D94FF06E
:10449000500383F31188BFF36F8FBFF34F8FFEE795
:1044A0000A4B1B6803F4E063094A1268934208D977
:1044B0004FF0500383F31188BFF36F8FBFF34F8F1B
:1044C000FEE77047F0E300E0601900200CED00E02B
:1044D0006419002010B503460C4A0D490D480068C8
:1044E00040B10C4800680344521A934206D8094A66
:1044F000136010BD0748084C0460F2E700F09CF818
:104500000C2303604FF0FF30F3E700BF00000120F1
:104510000004000068190020881C002008B50C4821
:104520000C4B03604FF4E133436000218160C160B4
:1045300001610C2343618161C161016241620B46EB
:104540000A46FDF716FF00B908BDFCF78DF8FBE73A
:10455000FC1B00200038014010B59EB0044600212D
:1045600019911A911B911C911D915C2202A800F0D7
:1045700098F82268194B9A4201D01EB010BD1EA8AF
:10458000012340F8703DFCF78BFF18BB144B1A6EEB
:1045900042F480421A661A6E02F480420092009A37
:1045A000DA6C42F00102DA64DB6C03F00103019380
:1045B000019B4FF4B053199302231A9300231B93CA
:1045C00003231C9307231D9319A94FF09040FDF777
:1045D000F5F8D2E7FCF748F8D8E700BF003801400B
:1045E00000100240DFF834D0FDF704FF0C480D49FD
:1045F0000D4A002302E0D458C4500433C4188C423E
:10460000F9D30A4A0A4C002301E013600432A242A3
:10461000FBD300F017F8FCF77FF8FEE7000001205D
:1046200000000020780000202050000878000020C2
:10463000881C0020FEE70000014B1868704700BF8F
:104640001000002070B50D4E0D4CA41BA4100025C9
:10465000A54209D10B4E0C4C00F028FCA41BA41061
:104660000025A54205D170BD56F825309847013583
:10467000EEE756F8253098470135F2E7105000086C
:1046800010500008105000081450000810B5431EC8
:104690000A44914200D110BD11F8014B03F8014FBB
:1046A000F7E702440346934200D1704703F8011B29
:1046B000F9E700000EB400B59CB01DAB0290069067
:1046C0006FF00041094807910491094953F8042B00
:1046D00005910068019302A900F066F8029B002290
:1046E0001A701CB05DF804EB03B070471000002096
:1046F0000802FFFF2DE9F0478E689E4282460C4675
:104700009046994637D88A8912F4906F31D025683F
:1047100009696F1A6569022305EB450595FBF3F5F9
:1047200009F101033B449D4238BF1D46530530D576
:10473000294600F021FB064650B90C23CAF8003088
:10474000A38943F04003A3814FF0FF30BDE8F08719
:104750003A462169FFF79AFFA38923F4906343F057
:104760008003A381266165613E44ED1B2660A56040
:104770004E464E4500D94E4632464146206800F02E
:1047800093FAA3689B1BA36023681E442660002045
:10479000DCE72A4600F04AFB06460028E2D1216900
:1047A000504600F09BFAC8E72DE9F04F1D468B8973
:1047B0001F069DB080460C4616460FD50B696BB997
:1047C000402100F0D9FA2060206128B90C23C8F8F4
:1047D00000304FF0FF30C8E04023636100230993AD
:1047E00020238DF8293030238DF82A3003954FF09F
:1047F000010B37463D4615F8013B0BB1252B3ED149
:10480000B7EB060A0BD05346324621464046FFF727
:1048100071FF013000F0A480099B534409933B7859
:10482000002B00F09D8000234FF0FF32CDE90523DF
:10483000049307938DF853301A932F46052217F8E7
:10484000011B5048FBF7CCFC049BD0B9D90644BFF0
:1048500020228DF853201A0744BF2B228DF85320B5
:104860002A782A2A15D0079A2F4600200A25394689
:1048700011F8013B303B092B4DD9B8B10FE02F4661
:10488000B8E7404A801A0BFA00F0184304903D46FE
:10489000D3E7039A111D12680391002A01DB0792E6
:1048A00004E0524243F00203079204933B782E2B1C
:1048B0000CD17B782A2B33D1039B1A1D1B680392E2
:1048C000002BB8BF4FF0FF33023705932E4D3978D8
:1048D00003222846FBF784FC38B14023401B03FA2F
:1048E00000F0049B034301370493397827488DF87F
:1048F000281006227E1CFBF773FC002838D0244BBE
:1049000013BB039B073323F0070308330393099B6F
:104910004B4409936DE705FB023201200F46A6E7E1
:1049200000230137059319460A25384610F8012B54
:10493000303A092A03D9002BC8D00591C6E705FBF8
:10494000012101230746F0E703AB00932246114BF8
:1049500004A94046AFF30080B0F1FF3F8146D6D1B5
:10496000A3895B063FF535AF09981DB0BDE8F08F10
:1049700003AB00932246074B04A9404600F082F89F
:10498000EAE700BFD44F0008DA4F0008DE4F000806
:1049900000000000F54600082DE9F04791461F464B
:1049A0008A680B69DDF820809342B8BF1346C9F8C6
:1049B000003091F8432006460C4612B10133C9F885
:1049C00000302368990642BFD9F800300233C9F895
:1049D0000030256815F0060507D104F1190AE368CF
:1049E000D9F800209B1AAB4228DC94F843302268A7
:1049F000003318BF012392062DD404F14302394637
:104A00003046C047013020D02368E568D9F800203F
:104A100003F00603042B08BFAD1AA36822690CBF7C
:104A200025EAE57500259342C4BF9B1AED184FF0A7
:104A300000091A344D451AD1002008E001235246DE
:104A400039463046C047013003D14FF0FF30BDE852
:104A5000F0870135C3E7E1185A1C302081F8430084
:104A6000224494F8451082F843100233C5E701232D
:104A7000224639463046C0470130E6D009F10109E7
:104A8000D8E700002DE9F04301F1430C0C46097E04
:104A900085B06E291746064698460C9A00F0B380FA
:104AA00022D8632936D00AD8002900F0B9805829C5
:104AB00000F0838004F1420584F8421032E064295A
:104AC00001D06929F6D120681368050603F10401B5
:104AD0002AD51B681160002B03DA2D225B4284F873
:104AE00043206F480A2239E0732900F09D8008D8DE
:104AF0006F2920D07029DDD1236843F02003236083
:104B000003E0752917D07829D4D1782384F845306B
:104B1000644855E01368191D1B68116004F14205D3
:104B200084F8423001238CE01B68116010F0400FC4
:104B300018BF1BB2CFE713682568181D1060280640
:104B400001D51B6802E06806FBD51B8854486F2915
:104B500014BF0A220822002184F843106568A5606A
:104B6000002DC0F29580216821F004012160002B06
:104B70003DD1002D40F08E806546082A0BD1236878
:104B8000DB0708D5236962689A42DEBF302305F847
:104B9000013C05F1FF35ACEB05032361CDF8008046
:104BA0003B4603AA21463046FFF7F6FE01304DD1C1
:104BB0004FF0FF3005B0BDE8F083394884F8451068
:104BC000136821681D1D1B6815600A060BD5CA07EE
:104BD00044BF41F0200121601BB9226822F020026D
:104BE00022601022B7E74D0648BF9BB2EFE765464B
:104BF000B3FBF2F102FB1133C35C05F8013D0B4638
:104C00000029F5D1B9E7136825686169181D10609E
:104C100028061B6801D5196002E06A06FBD51980D9
:104C2000002323616546B9E71368191D11601D68EB
:104C3000626800212846FBF7D3FA08B1401B606088
:104C400063682361002384F84330A7E723692A4679
:104C500039463046C0470130AAD023689B0713D499
:104C6000E068039B9842B8BF1846A3E701234A4671
:104C700039463046C04701309AD00135E368039A7F
:104C80009B1AAB42F2DCEBE7002504F11909F5E7CA
:104C9000002BACD1037884F8423004F142056CE774
:104CA000E54F0008F64F0008884210B501EB0203FB
:104CB00007D8421E99420AD011F8014B02F8014F61
:104CC000F8E78342F5D98118D21AD34200D110BD3A
:104CD00013F8014D01F8014DF7E7000038B505461E
:104CE000002945D051F8043C0C1F002BB8BFE41834
:104CF00000F0D2F81F4A1368104633B9636014609D
:104D00002846BDE8384000F0C8B8A3420CD9216855
:104D10006218934204BF1A685B68636004BF52184C
:104D200022600460ECE713465A680AB1A242FAD93D
:104D300019685818A0420BD12068014458188242C3
:104D40001960DDD1106852685A6001441960D7E7D4
:104D500002D90C232B60D3E7206821188A4204BFB4
:104D600011685268626004BF091821605C60C7E77F
:104D700038BD00BF6C19002070B5CD1C25F00305AF
:104D800008350C2D38BF0C25002D064601DBA94245
:104D900003D90C233360002070BD00F07DF8214A58
:104DA0001468214691B9204C23681BB9304600F0A5
:104DB00063F820602946304600F05EF8431C24D199
:104DC0000C233360304600F068F8E4E70B685B1BA7
:104DD00018D40B2B0FD90B60CD50CC18304600F0F7
:104DE0005CF804F10B00231D20F00700C31AD3D098
:104DF0005A42E250D0E78C424B6816BF63601360A2
:104E00000C46EBE70C464968CCE7C41C24F00304CD
:104E1000A04205D0211A304600F02EF80130CFD044
:104E20002560DBE76C19002070190020F8B50746F3
:104E300014460E4621B91146BDE8F840FFF79CBF65
:104E400022B9FFF74BFF25462846F8BD00F026F8AB
:104E5000A0420FD221463846FFF78EFF05460028B4
:104E6000F2D031462246FFF711FC31463846FFF7B3
:104E700035FFE9E73546E7E738B5064C0023054638
:104E800008462360FFF726FB431C02D1236803B1C9
:104E90002B6038BD841C00207047704751F8043CDB
:104EA000181F002BBCBF0B58C0187047F8B500BFC7
:104EB000F8BC08BC9E467047F8B500BFF8BC08BCFB
:084EC0009E467047000000004F
:104EC80010000000020000000000000000000000C8
:104ED800684F0008B5050008000000000000000049
:104EE8000002000000000000000000005C4F000805
:104EF80015060008FDFF000000000000800000000B
:104F08000000000000000000504F00081F060008C5
:104F1800FDFF00000000000080000000000000000D
:104F280000000000746872656164206E616D652020
:104F380069732025732E2074696D655F75736564C8
:104F48002069732025640A006D795461736B3033CE
:104F5800000000006D795461736B3032000000006E
:104F680064656661756C745461736B0000000000C1
:104F78000000000001020304060708090000000001
:104F880001020304A0860100400D0300801A0600F8
:104F980000350C0040420F0080841E0000093D00CF
:104FA80000127A000024F40000366E010048E8017F
:104FB800006CDC0249444C4500000000546D7251FD
:104FC80000000000546D722053766300232D302BAF
:104FD8002000686C4C0065666745464700303132F2
:104FE8003334353637383941424344454600303149
:104FF80032333435363738396162636465660000A8
:08500800A8B2FF7F01000000C7
:08501000B501000800000000DA
:085018009101000800000000F6
:10502000010000001000000000093D00AAAAAAAA81
:10503000140000200000000000000000000000003C
:105040000000000000000000000000000000000060
:105050000000000000000000000000000000000050
:105060000000000000000000000000000000000040
:105070000000000000000000000000000000000030
:105080000000000000000000000000000000000020
:08509000000000000000000018
:04000005080045E5C5
:00000001FF
